:020000040000FA
:10000000680400206D02000071020000730200000D
:100010007502000077020000790200000000000075
:100020000000000000000000000000007B02000053
:100030007D020000000000007F020000810200003D
:10004000830200008302000083020000830200009C
:10005000830200008302000083020000830200008C
:10006000830200008302000083020000830200007C
:10007000830200008302000083020000830200006C
:10008000830200008302000083020000830200005C
:10009000830200008302000083020000830200004C
:1000A000830200008302000083020000830200003C
:1000B0008302000083020000B103000083020000FD
:1000C000830200008302000083020000830200001C
:1000D000830200008302000083020000830200000C
:1000E00083020000830200008302000083020000FC
:1000F00083020000830200008302000083020000EC
:1001000083020000830200008302000083020000DB
:1001100083020000830200008302000083020000CB
:1001200083020000830200008302000083020000BB
:1001300083020000830200008302000083020000AB
:1001400000000000000000000000000000000000AF
:10015000830200008302000083020000830200008B
:10016000000000000000000000000000000000008F
:10017000000000000000000000000000000000007F
:10018000000000000000000000000000000000006F
:10019000000000000000000000000000000000005F
:1001A000000000000000000000000000000000004F
:1001B000830200008302000083020000830200002B
:1001C000830200008302000083020000830200001B
:1001D000830200008302000083020000830200000B
:1001E00083020000830200008302000083020000FB
:1001F00083020000830200008302000083020000EB
:10020000830200008302000083020000000000005F
:1002100083020000830200008302000083020000CA
:1002200083020000830200008302000083020000BA
:1002300083020000830200008302000083020000AA
:10024000830200008302000083020000830200009A
:10025000830200008302000083020000830200008A
:1002600083020000830200008302000000F00AB84D
:10027000FEE7FEE7FEE7FEE7FEE7FEE7FEE7FEE756
:10028000FEE7FEE700F002F800F02CF80AA090E884
:10029000000C82448344AAF10107DA4501D100F041
:1002A00021F8AFF2090EBAE80F0013F0010F18BFE2
:1002B000FB1A43F001031847D00C0000E00C0000CB
:1002C0000023002400250026103A28BF78C1FBD85F
:1002D000520728BF30C148BF0B6070471FB51FBD14
:1002E00010B510BD00F029F81146FFF7F7FF00F038
:1002F00075FB00F047F803B4FFF7F2FF03BC00F012
:100300004FF8000072B6704762B67047EFF3108086
:1003100072B6704780F31088704730BF704702484C
:100320000249014A024B704768000020680400201F
:1003300068000020704770477047754600F02CF841
:10034000AE4605006946534620F00700854618B0C2
:1003500020B5FFF7E4FFBDE820404FF000064FF066
:1003600000074FF000084FF0000BAC46ACE8C009A6
:10037000ACE8C009ACE8C009ACE8C00921F007014D
:100380008D46704710B50446AFF300802046BDE8A7
:100390001040FFF7B0BF0000004870470000002089
:1003A00001491820ABBEFEE726000200704700009E
:1003B00080B545F21440C4F202000068C00780B165
:1003C000FFE745F21C41C4F202010120086045F636
:1003D000C051084600F060FC00F0E8FC00F01EFA96
:1003E000FFE745F21440C4F202000068C00600288E
:1003F00010D5FFE745F21C41C4F20201102008604D
:1004000045F6C051084600F047FC00F0F7FB00F04D
:1004100005FAFFE780BD000081B04EF27001C4F222
:100420000F010091086840F000400860086840F43F
:10043000006008604EF26002C4F20F02106820F4FF
:10044000F8601060106800F5A8601060086820F07F
:100450007000086008680860086820F400500860B0
:10046000086840F0804008600868092262F39C50E8
:100470000860FFE74EF25000C4F20F00006840062B
:10048000002801D4FFE7F5E74EF27001C4F20F0136
:10049000086820F40060086001B0704780B584B03F
:1004A000039002910DF1060001A900F0BFF8BDF81C
:1004B000060040F26002C2F20002118808444008BF
:1004C00003990880BDF8040040F26201C2F2000105
:1004D0000B8818444008029B1880BDF80600108065
:1004E000BDF80400088004B080BD000081B0009019
:1004F000FFE748F20C00C4F2000000684007002843
:1005000001D4FFE7F5E748F20800C4F200000068F4
:100510000099087001B0704781B04EF20411C4F226
:100520000F01086840F0100008604EF20810C4F295
:100530000F00016841F0010101600068009044F281
:100540002041C4F20001086840F03C00086044F219
:100550001C51C4F20001086840F03C00086044F2FD
:100560002C51C4F200010868FF22CFF60F72104030
:1005700042F20022C0F220021043086044F22851E7
:10058000C4F20001086820F03C00086048F2040151
:10059000C4F20001086820F002000860086840F01A
:1005A0000400086048F6C872C4F20002106820F027
:1005B0000F00106048F21002C4F200021068082315
:1005C00063F30700106048F20002C4F200021068F2
:1005D00020F47F401060106840F0C0001060106888
:1005E00020F0300010601068072363F303001060F0
:1005F000086840F00200086001B0704781B08DF8D3
:100600000300FFE748F20C00C4F200000068800716
:10061000002801D4FFE7F5E79DF8030048F2080140
:10062000C4F20001086001B07047000082B0019080
:10063000009148F22801C4F2030104200860FFE79A
:1006400048F20400C4F2030000684007002801D407
:10065000FFE7F5E748F28800C4F2030001686FF392
:100660001F31019A118000686FF31F3000990880D4
:1006700048F20C01C4F203010420086002B0704784
:1006800081B04EF23861C4F20F01086840F00100F9
:1006900008604EF20860C4F20F00016841F01001DA
:1006A0000160016800910068009044F20041C4F2CA
:1006B0000201086820F01200086044F22041C4F2F0
:1006C0000201086840F01200086044F21C51C4F2B4
:1006D0000201086820F01200086044F22C51C4F2B4
:1006E000020108684FF60F72CFF6F07210400860F2
:1006F00044F22851C4F20201086840F01200086078
:1007000048F6C471C4F20301086820F00F000860C5
:10071000086840F00100086048F22001C4F20301BB
:1007200043F21020086048F20001C4F20301086897
:1007300020F00400086048F21402C4F203021068BA
:1007400020F47060106048F28002C4F2030240F6A8
:100750009200106048F28402C4F203024FF4C060B9
:10076000106048F20802C4F20302106820F004008E
:100770001060086840F00400086001B07047000095
:100780004EF20411C4F20F01086840F00200086044
:100790004EF20811C4F20F01086840F00200086030
:1007A0004DF23001C4F20001002008604DF2240037
:1007B000C4F20000112202604DF22803C4F20003CB
:1007C000172018604DF22C03C4F20003702018604B
:1007D000086840F201331843086045F22041C4F232
:1007E0000001086840F00300086045F21C51C4F2A3
:1007F0000001086840F00300086045F22C51C4F283
:100800000001086862F30700086045F22851C4F24D
:100810000001086820F003000860704781B043F2CF
:10082000BC10C0F20C000090FFE7009820B1FFE779
:10083000009801380090F8E701B070474EF20810B8
:10084000C4F20F0000688006002814D4FFE74EF2BF
:100850000811C4F20F01086840F020000860FFE7AB
:100860004EF20810C4F20F0000688006002801D480
:10087000FFE7F5E7FFE7FFE74EF20810C4F20F00CD
:1008800000688006002801D4FFE7F5E745F2205113
:10089000C4F2020144F24B30C4F64F40086045F206
:1008A0002451C4F20201086840F00E00086045F2CD
:1008B0002851C4F20201086820F00E00086045F2D9
:1008C0002C51C4F2020108686FF31300086045F26E
:1008D0000041C4F20201086840F00E00086045F2D1
:1008E0002041C4F20201086820F00E00086045F2C1
:1008F0001C51C4F20201086840F00E00086045F285
:100900003801C4F202010020086070474EF24061D5
:10091000C4F20F01086840F0010008604EF208615F
:10092000C4F20F01086840F00200086045F220415F
:10093000C4F20001086840F08000086045F22C51C4
:10094000C4F20001086820F070400860086840F0B8
:100950008040086045F22851C4F20001086820F088
:100960008000086045F21C51C4F20001086840F0A4
:10097000800008604EF26001C4F20F01086840F484
:1009800080100860086820F460200860086808602B
:1009900048F24001C4F202010020086048F26403FA
:1009A000C4F2020340F608421A6048F25003C4F24F
:1009B000020349F63F421A6048F25C02C4F20202A6
:1009C0001060086840F00100086048F20801C4F2B5
:1009D0000201086840F002000860704780B586B0E8
:1009E000002002900590FFF78DFC00F089FAFFF7D8
:1009F0008BFC02980390FFE7039809280ADCFFE7C5
:100A00000DF1120004A9FFF749FDFFE7039801303B
:100A10000390F1E7FFE70DF1120004A9FFF73EFD97
:100A200040F26400C2F200000090FFF75FFD009802
:100A30000078413801460191162800F26C80019936
:100A4000DFE801F028696936696969696969696976
:100A50006969524460691A6969690C0045F6C051B8
:100A6000084600F019F900F0C9F840F26501C2F239
:100A700000015720087051E045F6C051084600F0CB
:100A80000BF900F0A1F840F26501C2F20001532019
:100A9000087043E045F6C051084600F0FDF800F04C
:100AA0003FFA40F26501C2F200014120087035E0D2
:100AB00045F6C051084600F0EFF800F04BFA40F25E
:100AC0006501C2F200014420087027E045F6C051DC
:100AD000084600F0E1F800F0C5F840F26501C2F206
:100AE00000015020087019E045F6C051084600F09A
:100AF000D3F800F09DF840F26501C2F200014F20EA
:100B000008700BE000F052F940F26501C2F20001FA
:100B10005120087002E000F049F9FFE740F265005B
:100B2000C2F200000078FFF769FD74E74EF208108A
:100B3000C4F20F0000688007002814D4FFE74EF2CB
:100B40000811C4F20F01086840F002000860FFE7D6
:100B50004EF20810C4F20F0000688007002801D48C
:100B6000FFE7F5E7FFE745F22851C4F20001086806
:100B700020F03C00086045F22041C4F20001086802
:100B800020F03C00086045F22C51C4F200010868D6
:100B90006FF31720086045F20041C4F200010868B5
:100BA00040F03C00086045F21C51C4F200010868A6
:100BB00040F03C000860704780B500F081F8FFF716
:100BC000A5FEFFF7B3FF80BD45F23801C4F2020174
:100BD0000420086045F2F001C4F20001142008600E
:100BE00048F20801C4F20201086840F002000860FF
:100BF000086840F0010008607047000045F23801C5
:100C0000C4F202010820086045F2F001C4F20001BC
:100C10002820086048F20801C4F20201086840F088
:100C200002000860086840F001000860704700009A
:100C300045F23801C4F202010A20086045F2F001D1
:100C4000C4F200011820086048F20801C4F2020151
:100C5000086840F002000860086840F00100086081
:100C60007047000045F23801C4F202010620086016
:100C700045F2F001C4F200012420086048F20801A6
:100C8000C4F20201086840F002000860086840F001
:100C9000010008607047000082B001900091009848
:100CA000013848F25801C4F2020108600198013885
:100CB00048F25C01C4F20201086002B07047000013
:100CC0004EF24061C4F20F01086840F00100086074
:100CD0004EF20861C4F20F01086840F0020008609B
:100CE000FFE74EF20860C4F20F000068800700289A
:100CF00001D4FFE7F5E745F22041C4F2000108689E
:100D000040F04000086045F22C51C4F20001086830
:100D100020F070600860086840F08060086045F26C
:100D20002851C4F20001086820F04000086045F234
:100D30001C51C4F20001086840F04000086045F210
:100D40000851C4F20001086840F0C00008604EF28B
:100D50006001C4F20F010868082262F35440086081
:100D600048F24001C4F202010020086048F260032A
:100D7000C4F20203C8221A6048F25003C4F202030C
:100D800049F63F421A6048F25802C4F2020210606B
:100D9000086840F00100086048F20801C4F202014E
:100DA000086840F0010008607047000045F2380113
:100DB000C4F202010020086048F20801C4F20201F6
:100DC000086820F002000860086820F00100086050
:100DD000704700004EF20810C4F20F000068800651
:100DE000002814D4FFE74EF20811C4F20F0108687E
:100DF00040F020000860FFE74EF20810C4F20F0038
:100E000000688006002801D4FFE7F5E7FFE745F218
:100E10002051C4F2020144F24B30C4F64F40086046
:100E200045F22451C4F20201086840F01100086044
:100E300045F22851C4F20201086820F01100086050
:100E400045F22C51C4F20201086820F00F1008602E
:100E500045F20041C4F20201086820F01100086068
:100E600045F22041C4F20201086820F01100086038
:100E700045F21051C4F20201086840F01100086008
:100E800045F21C51C4F20201086840F01F000860DE
:100E900045F20441C4F20201086820F01100086024
:100EA00045F20841C4F20201086820F01100086010
:100EB00045F20C41C4F20201086820F011000860FC
:100EC00045F21C41C4F202011120086045F21041B4
:100ED000C4F20201086840F0110008604EF21C41A3
:100EE000CEF200010868022262F3575008604EF209
:100EF0000011CEF20001086840F0804008607047A1
:100F000080B5FFF759FEFFF787FAFFF797FCFFF769
:100F100003FBFFF75FFFFFF7B3FBFFF731FC80BD7B
:100F200045F23801C4F202010E20086045F2F001DA
:100F3000C4F200012820086048F20801C4F202014E
:100F4000086820F002000860086840F001000860AE
:100F50007047000045F23801C4F202010C2008601D
:100F600045F2F001C4F200012820086048F20801AF
:100F7000C4F20201086840F002000860086820F02E
:100F80000100086070470000980F0000000000207A
:080F900068040000C00200002B
:040000050000026D88
:00000001FF
