:020000040000FA
:10000000680400206D02000071020000730200000D
:100010007502000077020000790200000000000075
:100020000000000000000000000000007B02000053
:100030007D020000000000007F020000810200003D
:10004000830200008302000083020000830200009C
:10005000830200008302000083020000830200008C
:10006000830200008302000083020000830200007C
:10007000830200008302000083020000830200006C
:10008000830200008302000083020000830200005C
:10009000830200008302000083020000830200004C
:1000A000830200008302000083020000830200003C
:1000B0008302000083020000B103000083020000FD
:1000C000830200008302000083020000830200001C
:1000D000830200008302000083020000830200000C
:1000E00083020000830200008302000083020000FC
:1000F00083020000830200008302000083020000EC
:1001000083020000830200008302000083020000DB
:1001100083020000830200008302000083020000CB
:1001200083020000830200008302000083020000BB
:1001300083020000830200008302000083020000AB
:1001400000000000000000000000000000000000AF
:10015000830200008302000083020000830200008B
:10016000000000000000000000000000000000008F
:10017000000000000000000000000000000000007F
:10018000000000000000000000000000000000006F
:10019000000000000000000000000000000000005F
:1001A000000000000000000000000000000000004F
:1001B000830200008302000083020000830200002B
:1001C000830200008302000083020000830200001B
:1001D000830200008302000083020000830200000B
:1001E00083020000830200008302000083020000FB
:1001F00083020000830200008302000083020000EB
:10020000830200008302000083020000000000005F
:1002100083020000830200008302000083020000CA
:1002200083020000830200008302000083020000BA
:1002300083020000830200008302000083020000AA
:10024000830200008302000083020000830200009A
:10025000830200008302000083020000830200008A
:1002600083020000830200008302000000F00AB84D
:10027000FEE7FEE7FEE7FEE7FEE7FEE7FEE7FEE756
:10028000FEE7FEE700F002F800F02CF80AA090E884
:10029000000C82448344AAF10107DA4501D100F041
:1002A00021F8AFF2090EBAE80F0013F0010F18BFE2
:1002B000FB1A43F001031847AC120000BC12000007
:1002C0000023002400250026103A28BF78C1FBD85F
:1002D000520728BF30C148BF0B6070471FB51FBD14
:1002E00010B510BD00F029F81146FFF7F7FF00F038
:1002F000C1FB00F047F803B4FFF7F2FF03BC00F0C6
:100300004FF8000072B6704762B67047EFF3108086
:1003100072B6704780F31088704730BF704702484C
:100320000249014A024B704768000020680400201F
:1003300068000020704770477047754600F02CF841
:10034000AE4605006946534620F00700854618B0C2
:1003500020B5FFF7E4FFBDE820404FF000064FF066
:1003600000074FF000084FF0000BAC46ACE8C009A6
:10037000ACE8C009ACE8C009ACE8C00921F007014D
:100380008D46704710B50446AFF300802046BDE8A7
:100390001040FFF7B0BF0000004870470000002089
:1003A00001491820ABBEFEE726000200704700009E
:1003B00080B545F21440C4F202000068C00770B175
:1003C000FFE745F21C41C4F202010120086048F237
:1003D000D041084600F092FC00F01AFDFFE745F21C
:1003E0001440C4F202000068C00600280ED5FFE7E2
:1003F00045F21C41C4F202011020086048F2D041CD
:10040000084600F07BFC00F02BFCFFE780BD0000FD
:1004100081B04EF27001C4F20F010091086840F003
:1004200000400860086840F4006008604EF2600216
:10043000C4F20F02106820F4F8601060106800F534
:10044000A8601060086820F0700008600868086004
:10045000086820F400500860086840F08040086098
:100460000868092262F39C500860FFE74EF25000D2
:10047000C4F20F0000684006002801D4FFE7F5E74A
:100480004EF27001C4F20F01086820F400600860A9
:1004900001B0704780B584B0039002910DF1060061
:1004A00001A900F0BDF8BDF8060040F26002C2F2FA
:1004B000000211880844400803990880BDF8040030
:1004C00040F26201C2F200010B8818444008029B0E
:1004D0001880BDF806001080BDF80400088004B044
:1004E00080BD000081B00090FFE748F20C00C4F22C
:1004F000000000684007002801D4FFE7F5E748F254
:100500000800C4F2000000680099088001B070473C
:1005100081B04EF20411C4F20F01086840F01000DF
:1005200008604EF20810C4F20F00016841F00101AA
:1005300001600068009044F22041C4F200010868A4
:1005400040F03C00086044F21C51C4F2000108680D
:1005500040F03C00086044F22C51C4F200010868ED
:1005600042F2222262F31720086044F22851C4F2BA
:100570000001086820F03C00086048F20401C4F261
:100580000001086820F002000860086840F00400DC
:10059000086048F6C872C4F20002106820F00F002C
:1005A000106048F21002C4F200021068082363F3DE
:1005B0000700106048F20002C4F20002106820F444
:1005C0007F401060106820F040001060106820F03C
:1005D00080001060106820F030001060106840F05B
:1005E0000F001060086840F00200086001B070471A
:1005F00081B0ADF80200FFE748F20C00C4F2000041
:1006000000688007002801D4FFE7F5E7BDF8020085
:1006100048F20801C4F20001086001B07047000010
:1006200082B00190009148F22801C4F20301042035
:100630000860FFE748F20400C4F2030000684007C6
:10064000002801D4FFE7F5E748F28800C4F2030070
:1006500001686FF31F31019A118000686FF31F303A
:100660000099088048F20C01C4F2030104200860DC
:1006700002B0704781B04EF23861C4F20F010868D1
:1006800040F0010008604EF20860C4F20F000168FB
:1006900041F010010160016800910068009044F28F
:1006A0000041C4F20201086820F01200086044F220
:1006B0002041C4F20201086840F01200086044F2D0
:1006C0001C51C4F20201086820F01200086044F2D4
:1006D0002C51C4F2020108684FF60F72CFF6F07287
:1006E0001040086044F22851C4F20201086840F04A
:1006F0001200086048F6C471C4F20301086820F0D3
:100700000F000860086840F00100086048F220010E
:10071000C4F2030143F21020086048F20001C4F261
:100720000301086820F00400086048F21402C4F2D3
:100730000302106820F47060106048F28002C4F276
:10074000030240F69200106048F28402C4F20302F1
:100750004FF4C060106048F20802C4F2030210684F
:1007600020F004001060086840F00400086001B048
:100770007047000080B58AB0ADF82400BDF82400B1
:1007800041F21A51C0F200010988884208DBFFE7F4
:1007900041F21A50C0F2000080788DF8270086E000
:1007A000BDF8240041F21A51C0F20001B1F8441022
:1007B000884209DCFFE741F21A50C0F2000090F8CD
:1007C00046008DF8270072E000208DF823001120EC
:1007D0008DF82200FFE79DF8230001309DF82210DC
:1007E000884223DAFFE79DF823009DF82210091ABA
:1007F00001EBD17100EB51008DF82100BDF8240010
:100800009DF8212041F21A51C0F2000131F8221066
:10081000884205DDFFE79DF821008DF8220004E005
:100820009DF821008DF82300FFE7D4E79DF8231001
:1008300041F21A50C0F2000050F8211007919DF8C3
:10084000221050F821000690BDF82400BDF81810C1
:100850000091401A00F008FD00990190BDF81C00BD
:10086000401A00F001FD0146019800F01FFC01460E
:100870004FF07E5000F0DCFD05909DF81E000290C8
:1008800000F0F2FC02990490059803909DF81A007C
:10089000401A00F0E9FC0146039800F0FDFC0499C1
:1008A00000F0A2FB00F0C4FC8DF82700FFE79DF8E4
:1008B00027000AB080BD000081B08DF803008DF8DC
:1008C00002109DF803109DF8020040EA012001B0DB
:1008D000704700004EF20810C4F20F000068800656
:1008E000002814D4FFE74EF20811C4F20F01086883
:1008F00040F020000860FFE74EF20810C4F20F003D
:1009000000688006002801D4FFE7F5E7FFE7FFE76E
:100910004EF20810C4F20F0000688006002801D4CF
:10092000FFE7F5E745F22051C4F2020144F24B30F3
:10093000C4F64F40086045F22451C4F20201086831
:1009400040F00E00086045F22851C4F20201086828
:1009500020F00E00086045F22C51C4F20201086834
:100960006FF31300086045F20041C4F20201086809
:1009700040F00E00086045F22041C4F20201086810
:1009800020F00E00086045F21C51C4F20201086814
:1009900040F00E00086045F23801C4F20201002068
:1009A000086070474EF24061C4F20F01086840F0E1
:1009B000010008604EF20861C4F20F01086840F0BF
:1009C0000200086045F22041C4F20001086840F0CE
:1009D0008000086045F22C51C4F20001086820F044
:1009E00070400860086840F08040086045F2285177
:1009F000C4F20001086820F08000086045F21C5134
:100A0000C4F20001086840F0800008604EF2600106
:100A1000C4F20F01086840F480100860086820F4F0
:100A2000602008600868086048F24001C4F20201D2
:100A30000020086048F26403C4F2020340F6084252
:100A40001A6048F25003C4F2020349F63F421A60AA
:100A500048F25C02C4F202021060086840F0010033
:100A6000086048F20801C4F20201086840F0020080
:100A70000860704780B588B0002003900790FFF7AA
:100A800041FC00F06FFAFFF73FFC03980590FFE789
:100A9000059809280ADCFFE70DF11A0006A9FFF7FF
:100AA000F9FCFFE7059801300590F1E7FFE70DF14C
:100AB0001A0006A9FFF7EEFCBDF81A00FFF75AFE70
:100AC0008DF81300BDF81800FFF754FE8DF81200E2
:100AD0009DF813009DF81210FFF7EEFEADF8100020
:100AE00040F26400C2F200000190FFF7FBFC0198A5
:100AF0000088413801460291162841D80299DFE862
:100B000001F01C3F3F243F3F3F3F3F3F3F3F3F3FC0
:100B1000342C3C3F143F3F3F0C0048F2D041084684
:100B200000F0ECF800F09CF82DE048F2D0410846C7
:100B300000F0E4F800F07AF825E048F2D0410846E9
:100B400000F0DCF800F01CFA1DE048F2D041084645
:100B500000F0D4F800F02EFA15E048F2D041084633
:100B600000F0CCF800F0B0F80DE048F2D0410846B3
:100B700000F0C4F800F08EF805E000F049F902E05A
:100B800000F046F9FFE7BDF81000FFF731FD8EE7F2
:100B90004EF20810C4F20F0000688007002814D439
:100BA000FFE74EF20811C4F20F01086840F002009E
:100BB0000860FFE74EF20810C4F20F0000688007DB
:100BC000002801D4FFE7F5E7FFE745F22851C4F21A
:100BD0000001086820F03C00086045F22041C4F2A2
:100BE0000001086820F03C00086045F22C51C4F276
:100BF000000108686FF31720086045F20041C4F255
:100C00000001086840F03C00086045F21C51C4F245
:100C10000001086840F03C000860704780B500F0B3
:100C200081F8FFF7BFFEFFF7B3FF80BD45F2380143
:100C3000C4F202010420086045F2F001C4F2000190
:100C40001420086048F20801C4F20201086840F06C
:100C500002000860086840F001000860704700006A
:100C600045F23801C4F202010820086045F2F001A3
:100C7000C4F200012820086048F20801C4F2020111
:100C8000086840F002000860086840F00100086051
:100C90007047000045F23801C4F202010A200860E2
:100CA00045F2F001C4F200011820086048F2080182
:100CB000C4F20201086840F002000860086840F0D1
:100CC000010008607047000045F23801C4F20201DB
:100CD0000620086045F2F001C4F2000124200860FB
:100CE00048F20801C4F20201086840F002000860FE
:100CF000086840F0010008607047000082B0019071
:100D000000910098013848F25801C4F202010860CD
:100D10000198013848F25C01C4F20201086002B097
:100D2000704700004EF24061C4F20F01086840F0C5
:100D3000010008604EF20861C4F20F01086840F03B
:100D400002000860FFE74EF20860C4F20F0000687E
:100D50008007002801D4FFE7F5E745F22041C4F2FF
:100D60000001086840F04000086045F22C51C4F2D0
:100D70000001086820F070600860086840F080603A
:100D8000086045F22851C4F20001086820F04000D4
:100D9000086045F21C51C4F20001086840F04000B0
:100DA000086045F20851C4F20001086840F0C00034
:100DB00008604EF26001C4F20F010868082262F375
:100DC0005440086048F24001C4F20201002008606B
:100DD00048F26003C4F20203C8221A6048F25003CA
:100DE000C4F2020349F63F421A6048F25802C4F2C4
:100DF00002021060086840F00100086048F2080133
:100E0000C4F20201086840F0010008607047000069
:100E100045F23801C4F202010020086048F20801DE
:100E2000C4F20201086820F002000860086820F09F
:100E300001000860704700004EF20810C4F20F0075
:100E400000688006002814D4FFE74EF20811C4F2AF
:100E50000F01086840F020000860FFE74EF208101C
:100E6000C4F20F0000688006002801D4FFE7F5E710
:100E7000FFE745F22051C4F2020144F24B30C4F6C0
:100E80004F40086045F22451C4F20201086840F066
:100E90001100086045F22851C4F20201086820F0F0
:100EA0001100086045F22C51C4F20201086820F0DC
:100EB0000F10086045F20041C4F20201086820F0FA
:100EC0001100086045F22041C4F20201086820F0D8
:100ED0001100086045F21051C4F20201086840F0A8
:100EE0001100086045F21C51C4F20201086840F08C
:100EF0001F00086045F20441C4F20201086820F0B6
:100F00001100086045F20841C4F20201086820F0AF
:100F10001100086045F20C41C4F20201086820F09B
:100F20001100086045F21C41C4F202011120086062
:100F300045F21041C4F20201086840F01100086057
:100F40004EF21C41CEF200010868022262F35750B3
:100F500008604EF20011CEF20001086840F08040B7
:100F60000860704780B5FFF759FEFFF751FAFFF7A9
:100F7000B1FCFFF7CDFAFFF75FFFFFF77BFB80BD0A
:100F800045F23801C4F202010E20086045F2F0017A
:100F9000C4F200012420086048F20801C4F20201F2
:100FA000086840F002000860086840F0010008602E
:100FB0007047000045F23801C4F202010C200860BD
:100FC00045F2F001C4F200011820086048F208015F
:100FD000C4F20201086840F002000860086840F0AE
:100FE000010008607047000090EA010F48BF81F0DF
:100FF000004100F12482421A3CBF801A89184FEA4E
:10100000D052A2EBD1534FF07F4C1CEA410F18BFD6
:101010009CEA026F00F03B804FF0004C4CEA00204D
:101020004CEA012121FA03FC10EB0C0C1ED202F158
:10103000FF325FEA1C2040EBC25038BF70471CF003
:101040007F0F4FEA400C18BFBCF17F4F38BF70478D
:10105000C3F12003994008BF20F00100BCF17F4F8D
:1010600038BF7047A0F1C04000F0DDB94FEA3C0046
:10107000000A40EBC25028BF1CF0FF0F4FEA400CA3
:10108000E6D018BFBCF17F4F38BF7047EAE79CEA53
:10109000026F05D010EA5C0F08BF00F000407047F7
:1010A00010B500F07AF900BF64FBBE3E4FF47F0C30
:1010B0001CEAD0121EBF1CEAD11392EA0C0F93EA6D
:1010C0000C0F00F0858090EA010F48BF42F4807257
:1010D00040F4000C41F400002CF07F4120F07F40F0
:1010E00000B5A2EB030281420FF2081CACEB504E9C
:1010F0009EF800E0C0F100004FEA4E0E00FB0EFC2F
:1011000038BF49004FEA2C1C0CFB0EF34FEACE1EF1
:101110000EEB635E4FEA112C0EFB0CFC4FEAC12173
:101120004FEA1C5300FB031102F5FA024FEA112C9F
:101130000EFB0CFC4FEA01314FEADC4C00FB0C11BA
:1011400042EB2242C14228BF09184CEB03335DF841
:1011500004EB10EB410143EBC250B2F57C0F38BFFA
:10116000704729D512F0F00F1CBF00F1C04000F00D
:1011700000407047008182838485868788898B8CB4
:101180008D8E8F919293959697999A9C9D9FA0A2F0
:10119000A3A5A7A8AAACAEB0B2B3B5B7B9BCBEC040
:1011A000C2C5C7C9CCCED1D4D7D9DCDFE2E6E9ECE1
:1011B000F0F3F7FAFE0000004FEA400C0CF1807CDF
:1011C000BCF17E4F28BF7047B0F1C04000F02BB992
:1011D0000CEAD11390EA010F48BF42F480726245D5
:1011E00038BF634507D213F47F0F16D080EA0100A1
:1011F00000F00040704710B500F0CFF8097EFC3ECB
:1012000000F005B880EA010000F00040704780EA75
:10121000010000F0004000F006B912F47F0F04BF97
:101220000248704780EA010000F0FDB80000C07F6E
:1012300041000B0ED3F19E0208D950F400034FEA8F
:10124000032323FA02F048BF4042704710B500F074
:10125000A4F800BF49922480002070476FF000423C
:1012600082EA20007047000010F0004148BF404271
:10127000B0FA80F310FA03F2C3F19D030BD051EAE8
:10128000C35101EB1220530638BF704700F1010033
:1012900008BF20F0010070474FF47F0C1CEAD01209
:1012A0001EBF1CEAD11392EA0C0F93EA0C0F00F058
:1012B000478090EA010F48BF42F480724FF0004C23
:1012C0004CEA00204CEA012102EB0302A0FB0113CF
:1012D000A2F50002002918BF43F001035B0028BFFC
:1012E0004FEA330342EB22425FEA132C4CEBC2502D
:1012F0002EBFBCEB436FB2F57C0F70474FEA036C17
:10130000BCF1004F08BF20F00100B2F57C0F38BFE0
:1013100070470BD582F0FF0212F5803FC8BF7047BF
:1013200000F1C040D8BF00F00040704700F5000C4D
:101330005FEA4C0C48BF7047B0F1C04000F073B892
:101340000CEAD11390EA010F48BF42F48072624563
:1013500038BF634504D280EA010000F000407047C6
:1013600010B500F01AF800BF8900013E00F007B880
:1013700000F009B85FEA410C5FEA1C6C08D080EA13
:10138000010000F050B85FEA400C5FEA1C6CF6D137
:101390004FF00040A0F5800070470EF1020E2EF0D5
:1013A000030E5EF8044B244204D44FEA4102B2F12A
:1013B0007F4F11D84FEA4003B3F17F4F0CD80ED1C5
:1013C0004FEAD07C0CEB4C0C0CF1020CB2F17F4FCD
:1013D00008BF4CEBD17C04E04FF0080C01E04FEA71
:1013E000D17C0CEB4C0324FA03F404F00704B4F1B1
:1013F000040C06D20EEB840CBDE810404CF0010C3E
:101400006047DFE80CF0070802024FF00040A0F54B
:10141000800010BD0846420018BFD2F1807288BF1C
:1014200000F0004010BDFF2141EAD050C0057047D8
:1014300090EA010F48BF81F000413FF5DCAD421A50
:1014400004D882F00042A0EB020011444FEAD052CF
:10145000A2EBD1534FF07F4C1CEA410F18BF9CEA1E
:10146000026F4AD04FF0004C4CEA00204CEA0121B8
:1014700021FA03FCB0EB0C0C0FD412F0FE0F36D0A7
:101480005FEA4C001DD5001240EBC25038BF7047D8
:101490001CF03F0F18BF70470BE05FEA1C20A2F161
:1014A000010240EBC25038BF70471CF07F0F18BFDD
:1014B0007047C3F12003994014BF401E20F0010083
:1014C00070474FEA1223800808BF7047B0FA80FCCB
:1014D000A2EB0C02CCF1280C60FA0CF093EA122F6C
:1014E00004BF00EBC25070474FEAC3707047130A45
:1014F0005FEADC1008BF7047F6E79CEA026F04D091
:1015000010EA5C0F08BF0020704710B5FFF745FFD9
:1015100040DFF63E81F000407047FF0F0500710F7D
:1015200006007F0E0700700E0800C30D0900DB0CDB
:101530000A000D090F00F1061400B5051900F404A6
:101540001E0075042300A50328003B032D0036036D
:101550003200D6023700B2023C006F024B00F001AD
:101560005000000074150000000000206804000016
:04157000C0020000B5
:040000050000026D88
:00000001FF
